:020000040800F2
:1000000000000120F9020008490300084903000824
:1000100049030008490300084903000800000000E4
:10002000000000000000000000000000490300087C
:1000300049030008000000004903000849030008C4
:1000400000000000490300084903000849030008B4
:100050004903000849030008490300084903000850
:100060004903000849030008490300084903000840
:100070004903000849030008490300084903000830
:100080004903000849030008490300080000000074
:10009000000000000000000000000000490300080C
:1000A0004903000849030008490300084903000800
:1000B00049030008490300084903000849030008F0
:1000C00049030008490300084903000849030008E0
:1000D0004903000849030008490300080000000024
:1000E0004903000849030008490300080000000014
:1000F00000000000000000000000000049030008AC
:1001000000000000490300084903000849030008F3
:1001100000000000000000000000000000000000DF
:10012000490300084903000849030008490300087F
:10013000490300080000000000000000000000006B
:10014000000000000000000000000000490300085B
:10015000490300084903000849030008490300084F
:1001600049030008490300080000000000000000E7
:10017000000000000000000000000000000000007F
:10018000000000000000000000000000000000006F
:040190004903000817
:1001940010B5054C237833B9044B13B10448AFF3BD
:1001A40000800123237010BD000000200000000027
:1001B4009403000808B5034B1BB103490348AFF38C
:1001C400008008BD00000000040000209403000823
:1001D40080B500AF00F004F8592000F04DF8FBE7BB
:1001E40080B500AF204B1B6B1F4A43F00103136320
:1001F4001E4B1B681D4A23F0100313601B4B1B6826
:100204001A4A43F020031360184B1B6A174A43F43D
:1002140080731362154B1B6A144A43F40073136210
:10022400124B1B6A114A43F4806313620F4B1B6A1F
:100234000E4A23F4006313620B4B1B6C0A4A43F40B
:10024400003313644FF4E13209490A4800F02CF8F2
:10025400084B0822DA60074BDB68064A43F4005374
:10026400D36000BF80BD00BF0038024000000240E0
:100274000024F4000044004080B483B000AF7860F0
:1002840000BF084B1B6803F08003002BF9D07B6888
:10029400044ADBB2536000BF0C37BD465DF8047BF3
:1002A400704700BF0044004080B584B000AFF860E0
:1002B400B9607A607968B86800F008F803461A46AD
:1002C400FB689A6000BF1037BD4680BD80B483B020
:1002D40000AF786039603B685A087B681A443B6811
:1002E400B2FBF3F39BB218460C37BD465DF8047BB2
:1002F400704700000D488546AFF300800C480D4957
:100304000D4A002302E0D458C4500433C4188C426C
:10031400F9D30A4A0A4C002301E013600432A242D2
:10032400FBD300F011F8FFF753FFFEE700000120B4
:100334000000002000000020B4030008000000209A
:100344001C000020FEE7000070B50D4D0D4C641B31
:10035400A4100026A64209D10B4D0C4C00F018F84D
:10036400641BA4100026A64205D170BD55F8043BB9
:1003740098470136EEE755F8043B98470136F2E713
:10038400AC030008AC030008AC030008B003000889
:10039400F8B500BFF8BC08BC9E467047F8B500BF6E
:0803A400F8BC08BC9E4670473E
:0403AC00B90100088B
:0403B00095010008AB
:04000005080002F9F4
:00000001FF
