:020000040800F2
:10000000000001208D030008DD030008DD03000867
:10001000DD030008DD030008DD0300080000000028
:10002000000000000000000000000000DD030008E8
:10003000DD03000800000000DD030008DD03000808
:1000400000000000DD030008DD030008DD030008F8
:10005000DD030008DD030008DD030008DD03000800
:10006000DD030008DD030008DD030008DD030008F0
:10007000DD030008DD030008DD030008DD030008E0
:10008000DD030008DD030008650300080000000030
:10009000000000000000000000000000DD03000878
:1000A000DD030008DD030008DD030008DD030008B0
:1000B000DD030008DD030008DD030008DD030008A0
:1000C000DD030008DD030008DD030008DD03000890
:1000D000DD030008DD030008DD0300080000000068
:1000E000DD030008DD030008DD0300080000000058
:1000F000000000000000000000000000DD03000818
:1001000000000000DD030008DD030008DD03000837
:1001100000000000000000000000000000000000DF
:10012000DD030008DD030008DD030008DD0300082F
:10013000DD030008000000000000000000000000D7
:10014000000000000000000000000000DD030008C7
:10015000DD030008DD030008DD030008DD030008FF
:10016000DD030008DD0300080000000000000000BF
:10017000000000000000000000000000000000007F
:10018000000000000000000000000000000000006F
:04019000DD03000883
:1001940010B5054C237833B9044B13B10448AFF3BD
:1001A40000800123237010BD000000200000000027
:1001B4002804000808B5034B1BB103490348AFF3F7
:1001C400008008BD0000000004000020280400088E
:1001D40080B483B000AF0346FB7197F90730002B5E
:1001E4000BDBFB7903F01F02074997F907305B0922
:1001F400012000FA02F241F8232000BF0C37BD466B
:100204005DF8047B704700BF00E100E080B500AFFB
:10021400244B1B6B234A43F001031363224B1B68DB
:10022400214A43F0040313601F4B1B681E4A43F02A
:10023400080313601B4B5B6C1A4A43F480735364CA
:100244001A4B5B68194A43F0200353601220FFF7EE
:10025400BFFF164B5B6B154A43F001035363134B0B
:10026400DB6A124A23F48013D362104BDB6A0F4A11
:1002740023F40013D3620D4BDB6A0C4A23F480038E
:10028400D3620A4BDB6A094A23F40003D362074BA7
:100294009B68064A43F00103936062B600BF00BF47
:1002A40080BD00BF00380240000002400020014031
:1002B40080B400AF084B9B68074A43F00203936085
:1002C400054B9B68044A43F08043936000BFBD46DE
:1002D4005DF8047B704700BF0020014080B500AF8B
:1002E4000B4B1B6B0A4A43F001031363094B1B6856
:1002F400084A43F480631360064B1B68054A23F4E1
:1003040000631360FFF782FFFFF7D2FFFEE700BF31
:10031400003802400000024080B483B000AF0E4BAE
:100324005B690D4A43F02003536100237B6002E0C4
:100334007B6801337B607B68084A9342F8DD064B97
:100344005B69054A23F02003536100BF0C37BD46A7
:100354005DF8047B704700BF000002409F860100E7
:1003640080B500AF074B1B6803F00203002B07D0D6
:10037400044B1B68034A23F002031360FFF7CCFF0E
:1003840000BF80BD002001400D488546AFF30080CA
:100394000C480D490D4A002302E0D458C4500433DC
:1003A400C4188C42F9D30A4A0A4C002301E01360B2
:1003B4000432A242FBD300F011F8FFF78FFFFEE7EF
:1003C4000000012000000020000000204804000874
:1003D400000000201C000020FEE7000070B50D4D59
:1003E4000D4C641BA4100026A64209D10B4D0C4CE5
:1003F40000F018F8641BA4100026A64205D170BDB5
:1004040055F8043B98470136EEE755F8043B984706
:100414000136F2E7400400084004000840040008E4
:1004240044040008F8B500BFF8BC08BC9E467047F9
:0C043400F8B500BFF8BC08BC9E4670473D
:04044000B9010008F6
:040444009501000816
:040000050800038D5F
:00000001FF
