:020000040800F2
:10000000000001203D0200088D0200088D0200085A
:100010008D0200088D0200088D020008000000001B
:100020000000000000000000000000008D02000839
:100030008D020008000000008D0200088D020008FB
:10004000000000008D0200088D0200088D020008EB
:100050008D0200088D0200088D0200088D02000844
:100060008D0200088D0200088D0200088D02000834
:100070008D0200088D0200088D0200088D02000824
:100080008D0200088D0200088D02000800000000AB
:100090000000000000000000000000008D020008C9
:1000A0008D0200088D0200088D0200088D020008F4
:1000B0008D0200088D0200088D0200088D020008E4
:1000C0008D0200088D0200088D0200088D020008D4
:1000D0008D0200088D0200088D020008000000005B
:1000E0008D0200088D0200088D020008000000004B
:1000F0000000000000000000000000008D02000869
:10010000000000008D0200088D0200088D0200082A
:1001100000000000000000000000000000000000DF
:100120008D0200088D0200088D0200088D02000873
:100130008D02000800000000000000000000000028
:100140000000000000000000000000008D02000818
:100150008D0200088D0200088D0200088D02000843
:100160008D0200088D020008000000000000000061
:10017000000000000000000000000000000000007F
:10018000000000000000000000000000000000006F
:040190008D020008D4
:1001940010B5054C237833B9044B13B10448AFF3BD
:1001A40000800123237010BD000000200000000027
:1001B400D802000808B5034B1BB103490348AFF349
:1001C400008008BD0000000004000020D8020008E0
:1001D40080B483B000AF144B1B68134A43F002038E
:1001E4001360124B1B68114A43F4806313600F4B76
:1001F4001B680E4A23F4006313600D4B1B680C4A02
:1002040043F0200313600A4B1B68094A83F0200360
:10021400136000237B6002E07B6801337B607B68B2
:10022400044A9342F8DDEEE730380240000402400D
:10023400140402401FBF02000D488546AFF300803E
:100244000C480D490D4A002302E0D458C45004332D
:10025400C4188C42F9D30A4A0A4C002301E0136003
:100264000432A242FBD300F011F8FFF7B1FFFEE71E
:10027400000001200000002000000020F802000817
:10028400000000201C000020FEE7000070B50D4DAA
:100294000D4C641BA4100026A64209D10B4D0C4C36
:1002A40000F018F8641BA4100026A64205D170BD06
:1002B40055F8043B98470136EEE755F8043B984758
:1002C4000136F2E7F0020008F0020008F00200082C
:1002D400F4020008F8B500BFF8BC08BC9E4670479D
:0C02E400F8B500BFF8BC08BC9E4670478F
:0402F000B901000848
:0402F4009501000868
:040000050800023DB0
:00000001FF
