:020000040800F2
:10000000000001209D020008ED020008ED0200083A
:10001000ED020008ED020008ED02000800000000FB
:10002000000000000000000000000000ED020008D9
:10003000ED02000800000000ED020008ED020008DB
:1000400000000000ED020008ED020008ED020008CB
:10005000ED020008ED020008ED020008ED020008C4
:10006000ED020008ED020008ED020008ED020008B4
:10007000ED020008ED020008ED020008ED020008A4
:10008000ED020008ED020008ED020008000000008B
:10009000000000000000000000000000ED02000869
:1000A000ED020008ED020008ED020008ED02000874
:1000B000ED020008ED020008ED020008ED02000864
:1000C000ED020008ED020008ED020008ED02000854
:1000D000ED020008ED020008ED020008000000003B
:1000E000ED020008ED020008ED020008000000002B
:1000F000000000000000000000000000ED02000809
:1001000000000000ED020008ED020008ED0200080A
:1001100000000000000000000000000000000000DF
:10012000ED020008ED020008ED020008ED020008F3
:10013000ED020008000000000000000000000000C8
:10014000000000000000000000000000ED020008B8
:10015000ED020008ED020008ED020008ED020008C3
:10016000ED020008ED0200080000000000000000A1
:10017000000000000000000000000000000000007F
:10018000000000000000000000000000000000006F
:04019000ED02000874
:1001940010B5054C237833B9044B13B10448AFF3BD
:1001A40000800123237010BD000000200000000027
:1001B4003803000808B5034B1BB103490348AFF3E8
:1001C400008008BD0000000004000020380300087F
:1001D40080B500AF00F004F8482000F045F8FBE7D4
:1001E40080B400AF1D4B01221A631D4B1B681C4ACF
:1001F40023F0100313601A4B1B68194A43F02003C1
:100204001360174B1B6A164A43F480731362144B32
:100214001B6A134A43F400731362114B1B6A104A9E
:1002240043F4806313620E4B1B6A0D4A23F400638C
:1002340013620A4B4FF400321A640A4B0822DA6044
:10024400084BDB68074A43F40053D360054B8B2209
:100254009A6000BFBD465DF8047B704700380240D9
:10026400000002400044004080B483B000AF7860D6
:1002740000BF084B1B6803F08003002BF9D07B6898
:10028400044ADBB2536000BF0C37BD465DF8047B03
:10029400704700BF004400400D488546AFF300801E
:1002A4000C480D490D4A002302E0D458C4500433CD
:1002B400C4188C42F9D30A4A0A4C002301E01360A3
:1002C4000432A242FBD300F011F8FFF781FFFEE7EE
:1002D4000000012000000020000000205803000856
:1002E400000000201C000020FEE7000070B50D4D4A
:1002F4000D4C641BA4100026A64209D10B4D0C4CD6
:1003040000F018F8641BA4100026A64205D170BDA5
:1003140055F8043B98470136EEE755F8043B9847F7
:100324000136F2E7500300085003000850030008A8
:1003340054030008F8B500BFF8BC08BC9E467047DB
:0C034400F8B500BFF8BC08BC9E4670472E
:04035000B9010008E7
:040354009501000807
:040000050800029D50
:00000001FF
