:020000040800F2
:1000000000000120B10600080107000801070008F0
:1000100001070008010700080107000800000000B0
:1000200000000000000000000000000001070008C0
:100030000107000800000000010700080107000890
:100040000000000001070008010700080107000880
:100050000107000801070008010700080107000860
:100060000107000801070008D50300080107000880
:100070000107000801070008010700080107000840
:100080000107000801070008010700080000000040
:100090000000000000000000000000000107000850
:1000A0000107000801070008010700080107000810
:1000B0000107000801070008010700080107000800
:1000C00001070008010700080107000801070008F0
:1000D00001070008010700080107000800000000F0
:1000E00001070008010700080107000800000000E0
:1000F00000000000000000000000000001070008F0
:1001000000000000010700080107000801070008BF
:1001100000000000000000000000000000000000DF
:10012000010700080107000801070008010700088F
:1001300001070008000000000000000000000000AF
:10014000000000000000000000000000010700089F
:10015000010700080107000801070008010700085F
:10016000010700080107000800000000000000006F
:10017000000000000000000000000000000000007F
:10018000000000000000000000000000000000006F
:04019000010700085B
:1001A00010B5054C237833B9044B13B10448AFF3B1
:1001B00000800123237010BD5C00002000000000BF
:1001C0007415000808B5034B1BB103490348AFF38E
:1001D000008008BD000000006000002074150008C9
:1001E00001F0FF01102A2BDB10F0070F08D010F8E8
:1001F000013B013A8B422DD010F0070F42B3F6D1EC
:10020000F0B441EA012141EA014122F007047FF004
:1002100000070023F0E80256083C85EA010586EA5B
:10022000010685FA47F5A3FA87F586FA47F6A5FA97
:1002300087F68EB9EED1F0BC01F0FF0102F00702A3
:1002400032B110F8013B013A83EA010313B1F8D14E
:100250000020704701387047002D06BF354603382F
:10026000073815F0010F07D1013015F4807F02BF68
:10027000013015F4C03F0130F0BC0138704700BFB9
:1002800080B483B000AF0346FB7197F90730002BB1
:100290000BDBFB7903F01F02074997F907305B0975
:1002A000012000FA02F241F8232000BF0C37BD46BE
:1002B0005DF8047B704700BF00E100E080B500AF4F
:1002C00062B600BF214B1B6B204A43F0010313634E
:1002D0001F4B1B681E4A23F4807313601C4B1B6862
:1002E0001B4A23F400731360184B5B6C174A43F4EA
:1002F00080435364174BDB68164A23F00103D36035
:10030000144BDB68134A23F00203D360114BDB6804
:10031000104A23F00403D3600E4BDB680D4A23F030
:100320000803D3600C4B1B680B4A43F010031360A7
:10033000094BDB68084A43F01003D3600A20FFF73B
:100340009FFF62B600BF00BF80BD00BF0038024003
:100350000000024000380140003C014080B582B0FE
:1003600000AF7860786800F08BF97B681846083732
:10037000BD4680BD80B500AF0B4B1B6B0A4A43F0F6
:1003800001031363094B1B68084A43F4806313603D
:10039000064B1B68054A23F40063136000F0DAF88B
:1003A000FFF78CFFFEE700BF00380240000002406C
:1003B00080B500AF054800F067FA054B5B69044A59
:1003C00083F02003536100BF80BD00BF8C1500087F
:1003D0000000024080B500AF0A4800F055FA07E07F
:1003E000094B5B69084A43F010035361FFF7E0FFD4
:1003F000054B5B6903F01003002BF1D100BF00BF78
:1004000080BD00BFA0150008003C014080B586B04B
:1004100000AFF860B9607A6000237B610AE0AFF357
:1004200000800146BB685A1CBA60CAB21A707B6968
:1004300001337B617A697B689A42F0DB7B681846FE
:100440001837BD4680BD80B586B000AFF860B96092
:100450007A6000237B6109E0BB685A1CBA601B7894
:100460001846FFF77BFF7B6901337B617A697B6804
:100470009A42F1DB7B6818461837BD4680BD80B4D0
:1004800083B000AF78604FF0FF3318460C37BD469D
:100490005DF8047B704780B483B000AF786039604A
:1004A0003B684FF400525A60002318460C37BD4693
:1004B0005DF8047B704780B483B000AF786001239F
:1004C00018460C37BD465DF8047B704780B485B094
:1004D00000AFF860B9607A60002318461437BD4653
:1004E0005DF8047B7047000080B586B000AF78608F
:1004F000144A154BD31A7B617B693B61134B1B6814
:10050000002B02D1114B124A1A60104B1A687B68FB
:1005100013443A699A4207D200F05AFA03460C2271
:100520001A604FF0FF3309E0084B1B68FB60074B74
:100530001A687B681344054A1360FB68184618372D
:10054000BD4680BD000001200004000078000020AE
:10055000C801002080B500AF324B1B6B314A43F01D
:1005600001031363304B1B682F4A23F01003136001
:100570002D4B1B682C4A43F0200313602A4B1B6A47
:10058000294A43F480731362274B1B6A264A43F4BB
:1005900000731362244B1B6A234A43F48063136283
:1005A000214B1B6A204A23F4006313621E4B1B6815
:1005B0001D4A23F0400313601B4B1B681A4A43F08B
:1005C00080031360184B1B6A174A43F4805313626D
:1005D000154B1B6A144A43F400531362124B1B6AF7
:1005E000114A43F4804313620F4B1B6A0E4A23F4F3
:1005F000004313620B4B1B6C0A4A43F40033136431
:100600004FF4E13209490A4800F014F8084B0C2273
:10061000DA60074BDB68064A43F40053D36000BF3F
:1006200080BD00BF00380240000002400024F400FA
:100630000044004080B584B000AFF860B9607A60D3
:100640007968B86800F008F803461A46FB689A60B3
:1006500000BF1037BD4680BD80B483B000AF786066
:1006600039603B685A087B681A443B68B2FBF3F375
:100670009BB218460C37BD465DF8047B70470000FE
:1006800080B483B000AF786000BF084B1B6803F0F4
:100690008003002BF9D07B68044ADBB2536000BFB3
:1006A0000C37BD465DF8047B704700BF0044004036
:1006B0000D488546AFF300800C480D490D4A0023D4
:1006C00002E0D458C4500433C4188C42F9D30A4A07
:1006D0000A4C002301E013600432A242FBD300F075
:1006E0007DF9FFF747FEFEE7000001200000002033
:1006F0005C000020EC1500085C000020C801002010
:10070000FEE70000002310B50446C0E90033C0E94D
:100710000433836081814366C28183611946082264
:100720005C3000F006F90D4B63620D4BA3620D4B7C
:10073000E3620D4B23630D4B24629C4206D003F110
:100740006802944202D0D0339C4205D104F1580093
:10075000BDE8104000F066B910BD00BFAD0800084C
:10076000CF080008070900082B0900087C000020BA
:10077000024A0349034800F069B800BF00000020A6
:10078000D11200080C00002041680C4B994210B5B2
:10079000044601D000F09CFDA168094B994202D0AB
:1007A000204600F095FDE168064B994204D02046B2
:1007B000BDE8104000F08CBD10BD00BF7C000020E3
:1007C000E40000204C01002010B50B4B0B4C0C4AF0
:1007D0001A60204600220421FFF794FF04F168000C
:1007E00001220921FFF78EFF04F1D0000222BDE8AB
:1007F00010401221FFF786BFB40100207C000020CA
:1008000071070008014800F00EB900BFBD010020CB
:10081000014800F009B900BFBD01002010B5044631
:10082000FFF7F0FF236A1BB1BDE81040FFF7F0BFF0
:10083000044B2362044B1B68002BF5D1FFF7C4FF68
:10084000F2E700BF89070008B40100202DE9F84352
:100850000746884614460026D4E90195B9F10109F6
:1008600005D52468002CF7D13046BDE8F883AB8964
:10087000012B07D9B5F90E30013303D0294638468C
:10088000C04706436835E9E70FB407B5064904AB2E
:10089000086853F8042B8168019300F0E9F903B06C
:1008A0005DF804EB04B070475800002010B50C460A
:1008B000B1F90E1000F068F80028ABBF636DA38992
:1008C0001B1823F48053ACBF6365A38110BD2DE9D1
:1008D000F0411F468B89DB0505460C46164605D5BB
:1008E000B1F90E100223002200F03CF8A389B4F9FC
:1008F0000E1023F48053A38132463B462846BDE8C0
:10090000F04100F053B810B50C46B1F90E1000F0EC
:1009100029F8431CA38915BF606523F4805343F471
:100920008053A38118BFA38110BDB1F90E1000F050
:1009300009B802440346934200D1704703F8011BF3
:10094000F9E7000038B5064D0023044608462B6041
:10095000FFF795FD431C02D12B6803B1236038BD1E
:10096000B801002038B5074D04460846114600225C
:100970002A601A46FFF7AAFD431C02D12B6803B177
:10098000236038BDB801002038B5074D044608463D
:10099000114600222A601A46FFF738FD431C02D197
:1009A0002B6803B1236038BDB801002038B5074D6E
:1009B00004460846114600222A601A46FFF743FD06
:1009C000431C02D12B6803B1236038BDB80100205D
:1009D000014B1868704700BF5800002070B50D4DDE
:1009E0000D4C641BA4100026A64209D10B4D0C4CE3
:1009F00000F0C0FD641BA4100026A64205D170BD06
:100A000055F8043B98470136EEE755F8043B984704
:100A10000136F2E7E4150008E4150008E4150008C3
:100A2000E8150008704770477047000037B5002987
:100A300044D051F8043C0190002BA1F10404B8BF4C
:100A4000E41800F0DFF81E4A0198136833B96360B8
:100A5000146003B0BDE8304000F0DAB8A34208D912
:100A6000256861198B4201BF19685B6849192160CB
:100A7000EDE71A465B680BB1A342FAD91168551825
:100A8000A5420BD1246821445418A3421160E0D13F
:100A90001C685B6853600C441460DAE702D90C23CD
:100AA0000360D6E7256861198B4204BF19685B684B
:100AB000636004BF491921605460CAE703B030BDC8
:100AC000C001002070B50E4E0C463168054611B9C4
:100AD00000F0BCFC30602146284600F0B7FC431C07
:100AE0000AD0C41C24F00304A04207D0211A2846CF
:100AF00000F0ACFC013001D14FF0FF34204670BD56
:100B0000C40100202DE9F843CD1C25F0030508356C
:100B10000C2D38BF0C25002D074601DBA94205D955
:100B20000C233B6000263046BDE8F883DFF8D08018
:100B300000F068F8D8F800301C465CBB29463846FF
:100B4000FFF7C0FF431C044655D1D8F800402646A5
:100B5000002E45D1002C48D023683146384604EB9E
:100B6000030900F073FC81453FD121686D1A2946C5
:100B70003846FFF7A7FF013037D023682B442360A6
:100B8000D8F80030002B38D05A68A2422BD100226E
:100B90005A600FE02268521B1FD40B2A17D9611923
:100BA000A342256018BF5960636808BFC8F80010E9
:100BB00062514B60384604F10B0600F029F826F02C
:100BC0000706231DF21AAED09B1BA350ABE7A3422E
:100BD0006268DDD1C8F80020ECE723466468ACE722
:100BE00034467668B4E71346CCE70C233B603846BE
:100BF00000F00EF897E72560DCE75B60FFDE00BFE2
:100C0000C00100200148FFF70EBF00BFBC0100205B
:100C10000148FFF709BF00BFBC0100209368013BFA
:100C2000002B10B4936008DA9469A34201DB0A290F
:100C300003D15DF8044B00F073BB1368581C1060BF
:100C4000197008465DF8044B7047F8B506460F4624
:100C50001446D518AC4201D1002007E014F8011B5E
:100C60003A463046FFF7DAFF431CF3D1F8BD0000E7
:100C70002DE9F04F0D469DB014469846064618B132
:100C8000036A0BB9FFF7CAFD6B6ED90705D4AB89B0
:100C90009A0502D4A86DFFF7C6FEAB891B0701D5E4
:100CA0002B699BB92946304600F078FB70B16B6E1A
:100CB000DC0704D54FF0FF301DB0BDE8F08FAB89E5
:100CC0009805F7D4A86DFFF7AFFEF3E7002309936B
:100CD00020238DF82930CDF80C803023DFF8B08147
:100CE0008DF82A304FF0010923469A4613F8012B5C
:100CF0000AB1252AF9D1BAEB040B0BD05B46224688
:100D000029463046FFF7A1FF013000F0A980099A7B
:100D10005A4409929AF80030002B00F0A180002379
:100D20004FF0FF32CDE905230AF1010A049307933E
:100D30008DF853301A935446052214F8011B544879
:100D4000FFF74EFA049AD8B9D10644BF20238DF894
:100D50005330130744BF2B238DF853309AF80030DB
:100D60002A2B15D0079A544600204FF00A0C214632
:100D700011F8013B303B092B4DD9B0B1079214E07B
:100D8000A0EB080309FA03F313430493A246D2E746
:100D9000039B191D1B680391002BBBBF5B4242F0F4
:100DA000020207930793B8BF049223782E2B0CD12D
:100DB00063782A2B34D1039B1A1D1B680392002BE6
:100DC000B8BF4FF0FF3302340593DFF8D4A0217889
:100DD00003225046FFF704FA38B1049BA0EB0A0047
:100DE0004022824013430134049314F8011B294824
:100DF0008DF828100622FFF7F3F900283FD0264B84
:100E00001BBB039B073323F0070308330393099BA2
:100E10003B44099368E70CFB02320C460120A6E72D
:100E200000230134059319464FF00A0C204610F8B0
:100E3000012B303A092A03D9002BC6D00591C4E70B
:100E40000CFB012104460123F0E703AB00932A4683
:100E5000124B04A93046AFF300800746781CD6D168
:100E60006B6ED90705D4AB899A0502D4A86DFFF73C
:100E7000DBFDAB895B063FF51DAF09981CE703ABB3
:100E800000932A46054B04A9304600F079F8E4E7C0
:100E9000B0150008BA150008000000004B0C00084F
:100EA000B61500082DE9F047164699468A680B6981
:100EB000DDF820809342B8BF1346336091F8432099
:100EC00007460C460AB1013333602368990642BFD6
:100ED000336802333360256815F0060506D104F146
:100EE000190AE36832689B1AAB4226DC94F8432067
:100EF000131E226818BF012392062BD404F143026B
:100F000049463846C04701301ED02368226903F0A5
:100F10000603042B02BFE5683368ED1AA3680CBF13
:100F200025EAE57500259342C4BF9B1AED180026FB
:100F30001A34B5421AD1002008E00123524649462E
:100F40003846C047013003D14FF0FF30BDE8F0878D
:100F50000135C6E7E1185A1C302081F843002244CD
:100F600094F8451082F843100233C7E70123224664
:100F700049463846C0470130E6D00136D9E700007F
:100F80002DE9FF470F7E0C9D782F914680460C4639
:100F90009A4601F1430207D8622F0AD8002F00F0C9
:100FA000D480582F00F0C08004F1420584F84270CC
:100FB0003AE0A7F16303152BF6D801A151F823F00D
:100FC000191000082D100008A90F0008A90F00082B
:100FD000A90F0008A90F00082D100008A90F00088C
:100FE000A90F0008A90F0008A90F00083111000877
:100FF00059100008EB100008A90F0008A90F0008FD
:1010000053110008A90F000859100008A90F000883
:10101000A90F0008F31000082B681A1D1B682A602E
:1010200004F1420584F8423001239FE020682B68D8
:10103000070603F10401296001D51E6803E0460696
:10104000FBD5B3F90060002E03DA2D23764284F835
:1010500043305A480A2312E02B682068191D296082
:10106000050601D51E6802E04106FBD51E885348DF
:101070006F2F0CBF08230A23002184F843106568F2
:10108000A560002DA2BF216821F0040121600EB9E6
:10109000002D4BD01546B6FBF3F103FB1167C75D7E
:1010A00005F8017D3746BB420E46F4D9082B0BD11B
:1010B0002368DE0708D5236961689942DEBF3023C3
:1010C00005F8013C05F1FF35521B2261CDF800A067
:1010D0004B4603AA21464046FFF7E4FE01304AD1C1
:1010E0004FF0FF3004B0BDE8F087236843F02003E1
:1010F00023603348782784F84570236829681F06E1
:1011000051F8046B02D45F0648BFB6B2DF0748BF90
:1011100043F02003296048BF23601EB9236823F0F1
:10112000200323601023A7E72448E4E71546BDE722
:101130002B6826686169181D286035061B6801D573
:10114000196002E07006FBD5198000232361154663
:10115000BCE72B681A1D2A601D68626800212846BA
:10116000FFF73EF808B1401B60606368236100230D
:1011700084F84330AAE723692A4649464046D047C7
:101180000130ADD023689B0713D4E068039B9842DD
:10119000B8BF1846A6E70123324649464046D04725
:1011A00001309DD00135E36803995B1AAB42F2DC54
:1011B000EBE7002504F11906F5E700BFC1150008AB
:1011C000D21500088A892DE9F041054610070C4622
:1011D00058D44B68002B05DC0B6C002B02DC002084
:1011E000BDE8F081E66A002EF9D0002312F48052A7
:1011F0002F68216A2B6032D0606DA3895A0705D50C
:101200006368C01A636B0BB1236CC01A00230246DB
:10121000E66A216A2846B047431CA38906D129689B
:101220001D292BD8294A0A41D60727D400226260FB
:10123000D9042269226004D5421C01D12B6803B96C
:101240006065616B2F600029C9D004F144039942A5
:1012500002D02846FFF7EAFB00206063C0E70123C5
:101260002846B047411CC8D12B68002BC5D01D2B88
:1012700001D0162B01D12F60B1E7A38943F04003C1
:10128000A381ADE70F69002FA9D093070E6808BFAF
:101290004B690F6018BF0023A6EB07088B60B8F1FD
:1012A000000F9CDD216AA66A43463A462846B047AD
:1012B000002806DCA38943F04003A3814FF0FF30F0
:1012C0008EE70744A8EB0008E9E700BFFEFFBFDF99
:1012D00038B50B6905460C4613B90025284638BDBC
:1012E00018B1036A0BB9FFF799FAB4F90C30002B67
:1012F000F3D0626ED00704D4990502D4A06DFFF735
:1013000092FB28462146FFF75DFF636EDA0705462C
:10131000E4D4A3899B05E1D4A06DFFF785FBDDE74D
:10132000F8B50E461446054618B1036A0BB9FFF727
:1013300075FAA369A360A3891A0725D523691BB38E
:1013400023682269981A6369F6B28342374604DC3F
:1013500021462846FFF7BCFFE0B9A368013BA36024
:1013600023685A1C22601E706269431C9A4204D092
:10137000A389DB0706D50A2E04D121462846FFF7AC
:10138000A7FF38B93846F8BD2146284600F006F8D0
:101390000028D5D04FF0FF37F4E7000038B52A4BCE
:1013A000054618680C4618B1036A0BB9FFF736FA00
:1013B000A389B4F90C20180722D4D90607D409232D
:1013C0002B6042F04003A3814FF0FF3034E0580718
:1013D00012D5616B41B104F14403994202D0284611
:1013E000FFF724FB00236363A38923F02403A38175
:1013F0000023636023692360A38943F00803A3816A
:1014000023694BB9A38903F42073B3F5007F03D09C
:101410002146284600F050F8A089B4F90C2010F0BD
:1014200001030AD00023A36063695B42A3612369BF
:1014300043B910F08000C4D138BD810758BF63693B
:10144000A360F4E70020F7E75800002038B5064D08
:101450000023044608462B60FFF746F8431C02D1E0
:101460002B6803B1236038BDB801002070B50C466D
:10147000B1F90E10002996B015461E460DDAA38963
:1014800013F0800F4FF000010CBF4FF48063402336
:10149000002031602B6016B070BD6A4600F048F83D
:1014A0000028ECDB019901F47041A1F50053594289
:1014B00059414FF48063EBE78B8973B59D0706466E
:1014C0000C4607D504F147032360236101236361C0
:1014D00002B070BD01AB6A46FFF7C8FF0099054630
:1014E0003046FFF70FFB48B9B4F90C309A05EFD43A
:1014F00023F0030343F00203A381E3E7A389206001
:1015000043F08003A381009B6361019B20615BB179
:10151000B4F90E10304600F01DF828B1A38923F06D
:10152000030343F00103A381A3891D43A581CFE7F2
:1015300038B5074D00230446084611462B60FEF7D8
:10154000AAFF431C02D12B6803B1236038BD00BF42
:10155000B801002038B5064D0023044608462B602C
:10156000FEF7A9FF431C02D12B6803B1236038BDED
:10157000B8010020F8B500BFF8BC08BC9E46704713
:0C158000F8B500BFF8BC08BC9E467047E0
:10158C0042544E2070726573736564202E2E2E208B
:10159C000A0D0000496E20696E7465727275707464
:1015AC00696F6E00232D302B2000686C4C00656633
:1015BC006745464700303132333435363738394198
:1015CC0042434445460030313233343536373839AE
:0815DC006162636465660000B2
:0415E400C501000835
:0415E800A101000855
:1015EC0000000000030000007C0000200000000050
:1015FC007C000020E40000204C01002000000000D2
:10160C0000000000000000000000000000000000CE
:10161C0000000000000000000000000000000000BE
:10162C0000000000000000000000000000000000AE
:0C163C0000000000000000000C00002076
:04000005080006B138
:00000001FF
