:020000040800F2
:100000000000012095020008E5020008E502000852
:10001000E5020008E5020008E50200080000000013
:10002000000000000000000000000000E5020008E1
:10003000E502000800000000E5020008E5020008F3
:1000400000000000E5020008E5020008E5020008E3
:10005000E5020008E5020008E5020008E5020008E4
:10006000E5020008E5020008E5020008E5020008D4
:10007000E5020008E5020008E5020008E5020008C4
:10008000E5020008E5020008E502000800000000A3
:10009000000000000000000000000000E502000871
:1000A000E5020008E5020008E5020008E502000894
:1000B000E5020008E5020008E5020008E502000884
:1000C000E5020008E5020008E5020008E502000874
:1000D000E5020008E5020008E50200080000000053
:1000E000E5020008E5020008E50200080000000043
:1000F000000000000000000000000000E502000811
:1001000000000000E5020008E5020008E502000822
:1001100000000000000000000000000000000000DF
:10012000E5020008E5020008E5020008E502000813
:10013000E5020008000000000000000000000000D0
:10014000000000000000000000000000E5020008C0
:10015000E5020008E5020008E5020008E5020008E3
:10016000E5020008E50200080000000000000000B1
:10017000000000000000000000000000000000007F
:10018000000000000000000000000000000000006F
:04019000E50200087C
:1001940010B5054C237833B9044B13B10448AFF3BD
:1001A40000800123237010BD000000200000000027
:1001B4003003000808B5034B1BB103490348AFF3F0
:1001C400008008BD00000000040000203003000887
:1001D40080B500AF00F002F8FEE7000080B400AF85
:1001E400294B1B6B284A43F001031363274B1B68FD
:1001F400264A23F480631360244B1B68234A43F488
:1002040000631360214B1B6A204A43F4801313627A
:100214001D4B1B6C1C4A43F0010313644FF08043D5
:100224004FF6FE729A624FF080430E22DA624FF06C
:1002340080439B694FF0804243F0100393614FF079
:1002440080439B694FF0804243F0200393614FF059
:1002540080439B694FF0804223F0400393614FF049
:1002640080431B6A4FF0804243F0010313624FF056
:10027400804300225A624FF0804301221A6000BF7B
:10028400BD465DF8047B7047003802400000024020
:100294000D488546AFF300800C480D490D4A0023F4
:1002A40002E0D458C4500433C4188C42F9D30A4A27
:1002B4000A4C002301E013600432A242FBD300F095
:1002C40011F8FFF785FFFEE7000001200000002081
:1002D4000000002050030008000000201C00002043
:1002E400FEE7000070B50D4D0D4C641BA4100026F4
:1002F400A64209D10B4D0C4C00F018F8641BA41055
:100304000026A64205D170BD55F8043B9847013636
:10031400EEE755F8043B98470136F2E74803000836
:1003240048030008480300084C030008F8B500BF60
:10033400F8BC08BC9E467047F8B500BFF8BC08BCC2
:040344009E4670471A
:04034800B9010008EF
:04034C00950100080F
:040000050800029558
:00000001FF
