:020000040800F2
:1000000000000120E9030008390400083904000851
:100010003904000839040008390400080000000011
:10002000000000000000000000000000390400088B
:1000300039040008000000003904000839040008F1
:1000400000000000390400083904000839040008E1
:10005000390400083904000839040008390400088C
:10006000390400083904000839040008390400087C
:10007000390400083904000839040008390400086C
:1000800039040008390400083904000800000000A1
:10009000000000000000000000000000390400081B
:1000A000390400083904000839040008390400083C
:1000B000390400083904000839040008390400082C
:1000C000390400083904000839040008390400081C
:1000D0003904000839040008550200080000000037
:1000E0003904000839040008390400080000000041
:1000F00000000000000000000000000039040008BB
:100100000000000039040008390400083904000820
:1001100000000000000000000000000000000000DF
:1001200039040008390400083904000839040008BB
:10013000390400080000000000000000000000007A
:10014000000000000000000000000000390400086A
:10015000390400083904000839040008390400088B
:100160003904000839040008000000000000000005
:10017000000000000000000000000000000000007F
:10018000000000000000000000000000000000006F
:040190003904000826
:1001940010B5054C237833B9044B13B10448AFF3BD
:1001A40000800123237010BD000000200000000027
:1001B4008404000808B5034B1BB103490348AFF39B
:1001C400008008BD00000000040000208404000832
:1001D40080B500AF0A4B1B6B094A43F0010313635C
:1001E400084B1B68074A43F480631360054B1B6884
:1001F400044A23F40063136000F056F8FEE700BFDE
:10020400003802400000024080B400AF0D4B5B6830
:10021400DAB20D4B1A700C4B1B78312B06D10B4BF9
:100224005B690A4A43F02003536105E0074B5B69AD
:10023400064A23F02003536100BFBD465DF8047BEA
:10024400704700BF004400401C0000200000024032
:1002540080B500AF044B1B6803F02003002B01D0D2
:10026400FFF7D2FF00BF80BD0044004080B483B0DC
:1002740000AF0346FB7197F90730002B0BDBFB79CA
:1002840003F01F02074997F907305B09012000FAC0
:1002940002F241F8232000BF0C37BD465DF8047B11
:1002A400704700BF00E100E080B500AF364B1B6B28
:1002B400354A43F001031363344B1B68334A23F07C
:1002C40010031360314B1B68304A43F02003136062
:1002D4002E4B1B6A2D4A43F4807313622B4B1B6A0B
:1002E4002A4A43F400731362284B1B6A274A43F4D7
:1002F40080631362254B1B6A244A23F40063136250
:10030400224B1B68214A23F0400313601F4B1B68D8
:100314001E4A43F0800313601C4B1B6A1B4A43F4C0
:1003240080531362194B1B6A184A43F40053136237
:10033400164B1B6A154A43F480431362134B1B6A22
:10034400124A23F4004313620F4B1B6C0E4A43F40E
:10035400003313644FF4E1320D490E4800F01CF8E9
:100364000C4B0C22DA600B4BDB680A4A43F0200387
:10037400D3602620FFF77AFF064BDB68054A43F477
:100384000053D36000BF80BD00380240000002402B
:100394000024F4000044004080B584B000AFF8604D
:1003A400B9607A607968B86800F008F803461A46BC
:1003B400FB689A6000BF1037BD4680BD80B483B02F
:1003C40000AF786039603B685A087B681A443B6820
:1003D400B2FBF3F39BB218460C37BD465DF8047BC1
:1003E400704700000D488546AFF300800C480D4966
:1003F4000D4A002302E0D458C4500433C4188C427C
:10040400F9D30A4A0A4C002301E013600432A242E1
:10041400FBD300F011F8FFF7DBFEFEE7000001203C
:100424000000002000000020A404000800000020B8
:1004340020000020FEE7000070B50D4D0D4C641B3C
:10044400A4100026A64209D10B4D0C4C00F018F85C
:10045400641BA4100026A64205D170BD55F8043BC8
:1004640098470136EEE755F8043B98470136F2E722
:100474009C0400089C0400089C040008A0040008D4
:10048400F8B500BFF8BC08BC9E467047F8B500BF7D
:08049400F8BC08BC9E4670474D
:04049C00B90100089A
:0404A00095010008BA
:04000005080003E903
:00000001FF
