:020000040800F2
:100000000000012079030008C9030008C9030008A3
:10001000C9030008C9030008C90300080000000064
:10002000000000000000000000000000C9030008FC
:10003000C903000800000000C9030008C903000844
:1000400000000000C9030008C9030008C903000834
:10005000C9030008C9030008C9030008C903000850
:10006000C9030008C9030008C9030008C903000840
:10007000C9030008C9030008C9030008C903000830
:10008000C9030008C9030008C903000800000000F4
:10009000000000000000000000000000C90300088C
:1000A000C9030008C9030008C9030008C903000800
:1000B000C9030008C9030008C9030008C9030008F0
:1000C000C9030008C9030008C9030008C9030008E0
:1000D000C9030008C9030008C903000800000000A4
:1000E000C9030008C9030008C90300080000000094
:1000F000000000000000000000000000C90300082C
:1001000000000000C9030008C9030008C903000873
:1001100000000000000000000000000000000000DF
:10012000C9030008C9030008C9030008C90300087F
:10013000C9030008000000000000000000000000EB
:10014000000000000000000000000000C9030008DB
:10015000C9030008C9030008C9030008C90300084F
:10016000C9030008C90300080000000000000000E7
:10017000000000000000000000000000000000007F
:10018000000000000000000000000000000000006F
:04019000C903000897
:1001940010B5054C237833B9044B13B10448AFF3BD
:1001A40000800123237010BD000000200000000027
:1001B4001404000808B5034B1BB103490348AFF30B
:1001C400008008BD000000000400002014040008A2
:1001D40080B582B000AF00F00BF800F0B7F803462A
:1001E400FB71FB79412BF8D1412000F097F8F4E73B
:1001F40080B500AF324B1B6B314A43F001031363EC
:10020400304B1B682F4A23F0100313602D4B1B68DF
:100214002C4A43F0200313602A4B1B6A294A43F4F7
:1002240080731362274B1B6A264A43F400731362DC
:10023400244B1B6A234A43F480631362214B1B6AD9
:10024400204A23F4006313621E4B1B681D4A23F0EB
:10025400400313601B4B1B681A4A43F0800313606E
:10026400184B1B6A174A43F480531362154B1B6ADD
:10027400144A43F400531362124B1B6A114A43F4A9
:10028400804313620F4B1B6A0E4A23F4004313622C
:100294000B4B1B6C0A4A43F4003313644FF4E132F2
:1002A40009490A4800F014F8084B0C22DA60074B9D
:1002B400DB68064A43F40053D36000BF80BD00BF2F
:1002C40000380240000002400024F40000440040D2
:1002D40080B584B000AFF860B9607A607968B868B6
:1002E40000F008F803461A46FB689A6000BF10370E
:1002F400BD4680BD80B483B000AF786039603B6890
:100304005A087B681A443B68B2FBF3F39BB2184665
:100314000C37BD465DF8047B7047000080B483B0A1
:1003240000AF786000BF084B1B6803F08003002B0C
:10033400F9D07B68044ADBB2536000BF0C37BD467A
:100344005DF8047B704700BF0044004080B400AFF8
:1003540000BF074B1B6803F02003002BF9D0044BAC
:100364005B68DBB21846BD465DF8047B704700BF8E
:10037400004400400D488546AFF300800C480D4909
:100384000D4A002302E0D458C4500433C4188C42EC
:10039400F9D30A4A0A4C002301E013600432A24252
:1003A400FBD300F011F8FFF713FFFEE70000012074
:1003B4000000002000000020340400080000002099
:1003C4001C000020FEE7000070B50D4D0D4C641BB1
:1003D400A4100026A64209D10B4D0C4C00F018F8CD
:1003E400641BA4100026A64205D170BD55F8043B39
:1003F40098470136EEE755F8043B98470136F2E793
:100404002C0400082C0400082C0400083004000804
:10041400F8B500BFF8BC08BC9E467047F8B500BFED
:08042400F8BC08BC9E467047BD
:04042C00B90100080A
:04043000950100082A
:040000050800037973
:00000001FF
